:100000000C9468000C9490000C9490000C94900058
:100010000C9490000C9490000C9490000C94900020
:100020000C9490000C9490000C9490000C94900010
:100030000C9490000C9490000C9490000C94900000
:100040000C94CE050C9490000C949C050C947605B1
:100050000C9490000C9490000C9490000C949000E0
:100060000C9418060C949000000000080002010097
:1000700000030407000000000000000031363A31A0
:10008000383A303000446563202035203230323039
:100090000000000000250028002B000000000024C4
:1000A0000027002A000404040404040404020202D9
:1000B00002020203030303030301020408102040A9
:1000C00080010204081020010204081020003707F4
:1000D00011241FBECFEFD8E0DEBFCDBF22E0AAE5DE
:1000E000B1E001C01D92A83DB207E1F711E0A0E028
:1000F000B1E0EEE0F5E102C005900D92AA35B1073E
:10010000D9F710E0C8E6D0E004C02197FE010E94B4
:100110007F0AC736D107C9F70E948D070C94850A5C
:100120000C94000090E0FC01E754FF4F24918B55A4
:100130009F4FFC018491882399F090E0880F991FCC
:10014000FC01E556FF4FA591B491FC01EF56FF4F1E
:10015000859194918FB7F894EC91E22BEC938FBF3B
:100160000895982F2091160281E0213208F043C0B3
:100170008091F2018111FCCF8091150232E0309321
:10018000F2019093F1019FEF9093F0011092EF0133
:100190002093EE01A5EFB1E0EEECF1E090E0291341
:1001A00031C01092CD019091CD01880F892B8093A1
:1001B000CD018091CC01813049F51092CC01809124
:1001C000CD018093BB008091BC0083FDF8CF85EC0E
:1001D0008093BC008091F2018230E1F38091F001C4
:1001E0008F3FB1F08091F0018032A1F08091F00159
:1001F000803391F084E01092F40110921602109274
:10020000F30108953D9131939F5FC9CF85EEE0CF13
:1002100080E0F1CF82E0EFCF83E0EDCF0895089545
:10022000FC01538D448D252F30E0842F90E0821BFC
:10023000930B541710F0CF96089501970895FC0181
:10024000918D828D981761F0A28DAE0FBF2FB11DD9
:100250005D968C91928D9F5F9F73928F90E0089531
:100260008FEF9FEF0895FC01918D828D981731F0EB
:10027000828DE80FF11D858D90E008958FEF9FEF3F
:100280000895FC01918D228D892F90E0805C9F4F15
:10029000821B91098F7399270895FC01A48DA80FE3
:1002A000B92FB11DA35ABF4F2C91848D90E00196B8
:1002B0008F739927848FA689B7892C93A089B189D8
:1002C0008C91837080648C93938D848D981306C079
:1002D0000288F389E02D80818F7D80830895EF92DD
:1002E000FF920F931F93CF93DF93EC0181E0888FF0
:1002F0009B8D8C8D98131AC0E889F989808185FFC0
:1003000015C09FB7F894EE89FF896083E889F98961
:1003100080818370806480839FBF81E090E0DF9163
:10032000CF911F910F91FF90EF900895F62E0B8DB6
:1003300010E00F5F1F4F0F731127E02E8C8D8E1171
:100340000CC00FB607FCFACFE889F989808185FFD8
:10035000F5CFCE010E944D01F1CFEB8DEC0FFD2FBB
:10036000F11DE35AFF4FF0829FB7F8940B8FEA8993
:10037000FB8980818062CFCFCF93DF93EC01888DA2
:100380008823B9F0AA89BB89E889F9898C9185FD10
:1003900003C0808186FD0DC00FB607FCF7CF8C919E
:1003A00085FFF2CF808185FFEDCFCE010E944D0108
:1003B000E9CFDF91CF91089587E192E00E9441015A
:1003C00021E0892B09F420E0822F089580E090E05D
:1003D000892B29F00E94DC0181110C940000089502
:1003E000AF92BF92CF92DF92EF92FF920F931F9343
:1003F000CF93DF936C017B018B01040F151FEB0181
:100400005E01AE18BF08C017D10759F06991D60137
:10041000ED91FC910190F081E02DC6010995892BA9
:1004200079F7C501DF91CF911F910F91FF90EF9068
:10043000DF90CF90BF90AF90089590E0FC01E85915
:10044000FF4F2491FC01E754FF4F3491FC01EB5521
:10045000FF4FE491EE23C9F0222339F0233001F15C
:10046000A8F4213019F1223029F1F0E0EE0FFF1F3E
:10047000EF56FF4FA591B4918FB7F894EC916111AD
:1004800026C030953E233C938FBF08952730A9F0B6
:100490002830C9F0243049F7809180008F7D03C057
:1004A000809180008F7780938000DFCF84B58F7735
:1004B00084BDDBCF84B58F7DFBCF8091B0008F777B
:1004C0008093B000D2CF8091B0008F7DF9CF3E2BCA
:1004D000DACF1092AB011092AA011092F40110929F
:1004E00016021092F20181E08093F1011092CC018A
:1004F00061E082E10E941D0261E083E10E941D0231
:10050000E9EBF0E080818E7F808380818D7F808326
:1005100088E48093B80085E48093BC008EE091E08D
:100520009093A9018093A8018FE091E09093A70197
:100530008093A60108953FB7F8948091A20190910D
:10054000A301A091A401B091A50126B5A89B05C067
:100550002F3F19F00196A11DB11D3FBFBA2FA92F42
:10056000982F8827BC01CD01620F711D811D911D3F
:1005700042E0660F771F881F991F4A95D1F70895AB
:10058000FC01908190539A3008F090E08181805373
:100590002AE0929F800D1124089585ED8093BC0080
:1005A0008091BC0084FDFCCF1092F201089520914F
:1005B0007A01260F3327331F21323105ECF42091C5
:1005C000F201FC0190E080E0243069F082E00895BF
:1005D000A0917A012191AC01465A5E4FA40FB52F2C
:1005E000B11D2C930196861798F380917A01680FBC
:1005F00060937A0180E0089581E008950895E09184
:10060000AB018091AA01E81730F4F0E0E455FE4F09
:10061000808190E008958FEF9FEF08959091AB0156
:100620008091AA012FEF3FEF981748F4E92FF0E0EF
:10063000E455FE4F208130E09F5F9093AB01C901EC
:1006400008958091AA019091AB01891B990B08959F
:10065000CF92DF92EF92FF920F931F93CF93DF938E
:100660007C01CB018A012091F301222389F0EB0167
:100670006B01C40ED51ECC15DD0569F06991D7015B
:10068000ED91FC910190F081E02DC7010995F3CF28
:10069000642F0E94D702C801DF91CF911F910F9163
:1006A000FF90EF90DF90CF900895CF93DF931F924C
:1006B000CDB7DEB769832091F3012223F9F02091B1
:1006C0001602203258F021E030E0FC01338322830F
:1006D00090E080E00F90DF91CF9108958091F40138
:1006E000E82FF0E0EB50FE4F998190838F5F80936D
:1006F000F4018093160281E090E0ECCF61E0CE013E
:1007000001960E94D702F7CF089590E080E0089507
:100710009091F2019111FCCF282F91E09093F2017A
:100720009093F1013FEF3093F0011092EF01380FF9
:100730003093EE019093CD019091CD01906D909307
:10074000CD019091CC01913019F51092CC0190918E
:10075000CD019093BB009091BC0093FDF8CF95EC38
:100760009093BC009091F2019130E1F39091EF01F0
:10077000981710F42091EF01AEECB1E0ECEAF1E053
:1007800080E0821307C01092AB018093AA01089504
:1007900095EEE6CF9D9191938F5FF3CFCF93DF934B
:1007A000EC0160E08E810E941D0261E08E810E945A
:1007B0001D0260E08E810E941D028BE891E001978E
:1007C000F1F7DF91CF910895CF92DF92EF92FF92F0
:1007D0000F931F93CF93DF936C017C0187E0E80EAA
:1007E000F11CD0E0C0E0062F10E0B8010C2E02C0D2
:1007F000759567950A94E2F76170F70181917F0121
:100800000E941D022196C430D10579F7C601DF91FF
:10081000CF911F910F91FF90EF90DF90CF900C94AC
:10082000CE03CF92DF92EF92FF920F931F93CF935D
:10083000DF93EC01F62E642F8C810E941D028D81C6
:100840008F3F19F060E00E941D020F2D10E08F8590
:1008500084FF25C06E0187E0C80ED11CF12CE12C6D
:10086000B8010E2C02C0759567950A94E2F7617085
:10087000F60181916F010E941D02FFEFEF1AFF0A3E
:1008800088E0E816F10461F7CE01DF91CF911F9166
:100890000F91FF90EF90DF90CF900C94CE03B801B2
:1008A00084E0759567958A95E1F7CE010E94E4038F
:1008B0006F2DCE01DF91CF911F910F91FF90EF909F
:1008C000DF90CF900C94E40340E0682F80EC92E03E
:1008D0000C941104CF93DF93823029F49091CF02CE
:1008E00098609093CF028093D3021092D40280E458
:1008F0008093D50280E18093D60280E58093D70271
:100900008091C4020E9492008091C5028F3F11F035
:100910000E9492008091C6020E949200C0ECD2E038
:100920009E01205C32408091CF0284FD0AC084E0A9
:1009300090E02196281739073CF48E810E9492009E
:10094000EFCF88E090E0F5CF8BE39DE00197F1F7E2
:1009500060E08091C4020E941D0260E08091C602A6
:100960000E941D028091C5028F3F19F060E00E9435
:100970001D028091CF0284FD39C063E080EC92E0DB
:100980000E94E403CBE4D6E4CE010197F1F763E0E3
:1009900080EC92E00E94E4032197F1F763E080ECA1
:1009A00092E00E94E40383E592E00197F1F762E0B0
:1009B00080EC92E00E94E4038091CF0280620E946A
:1009C000640484E08093D0028CE00E94640481E09F
:1009D0000E9464048BE39FE10197F1F782E080932A
:1009E000D10286E0DF91CF910C94640480620E9472
:1009F00064048BE496E40197F1F78091CF02806262
:100A00000E94640483E592E00197F1F78091CF02A0
:100A100080620E946404D0CF41E00E94110481E012
:100A200090E00895FB0101900020E9F73197AF01B4
:100A3000461B570BDC01ED91FC910280F381E02D08
:100A400009948F929F92AF92BF92EF92FF920F9371
:100A50001F93CF93DF93CDB7DEB7A1970FB6F8946E
:100A6000DEBF0FBECDBF7C01FA01CB0119A222303F
:100A700008F42AE08E010F5D1F4F822E912CB12CBD
:100A8000A12CBF01A50194010E945D0AF901CA01D0
:100A90006A300CF5605DD8016E938D01232B242BF9
:100AA000252B79F790E080E0109721F0BD01C70178
:100AB0000E941205A1960FB6F894DEBF0FBECDBFFF
:100AC000DF91CF911F910F91FF90EF90BF90AF906A
:100AD0009F908F900895695CDECF462F50E070E0C4
:100AE00060E02AE00C9421050C9412051F920F92ED
:100AF0000FB60F9211242F933F934F935F936F93F1
:100B00007F938F939F93AF93BF93EF93FF9387E16F
:100B100092E00E944D01FF91EF91BF91AF919F91A3
:100B20008F917F916F915F914F913F912F910F9096
:100B30000FBE0F901F9018951F920F920FB60F9235
:100B400011242F938F939F93EF93FF93E0912702AC
:100B5000F09128028081E0912D02F0912E0282FD19
:100B60001BC09081809130028F5F8F732091310282
:100B7000821741F0E0913002F0E0E95EFD4F958F81
:100B800080933002FF91EF919F918F912F910F9061
:100B90000FBE0F901F9018958081F4CF1F920F9277
:100BA0000FB60F9211242F933F938F939F93AF9380
:100BB000BF9380919E0190919F01A091A001B0915F
:100BC000A10130919D0123E0230F2D3758F50196A7
:100BD000A11DB11D20939D0180939E0190939F01C3
:100BE000A093A001B093A1018091A2019091A301D3
:100BF000A091A401B091A5010196A11DB11D809302
:100C0000A2019093A301A093A401B093A501BF9169
:100C1000AF919F918F913F912F910F900FBE0F90A9
:100C20001F90189526E8230F0296A11DB11DD2CF63
:100C30001F920F920FB60F9211242F933F934F9351
:100C40005F936F937F938F939F93AF93BF93EF9334
:100C5000FF938091B900887F803609F44AC0F0F58F
:100C6000883209F4A7C018F5803109F49BC0B8F4A4
:100C7000882309F4F9C0883009F494C0FF91EF91FA
:100C8000BF91AF919F918F917F916F915F914F91A4
:100C90003F912F910F900FBE0F901F9018958831A4
:100CA00009F488C0803251F78093F00114C0803479
:100CB00009F49DC040F48033B9F38833F9F680938A
:100CC000F00185ECB0C0803509F485C0883509F4A1
:100CD00096C0883499F60E94CD02D0CF883909F4A5
:100CE0008CC038F5883729F050F4883611F08037F9
:100CF00029F683E08093F20110929C0157C0883856
:100D000009F47BC0803919F0803809F0B7CF8091A1
:100D10009C01803208F071C0E0919C0181E08E0F4F
:100D200080939C018091BB00F0E0E458FE4F8083EB
:100D30003DC0803B39F0E0F4803A09F479C0883A4C
:100D400009F09CCF84E08093F20110927B01109215
:100D50007A01E091A801F091A901099580917A01A9
:100D600081110FC081E080937A0110925A0109C06D
:100D7000803C09F4A6CF883C09F4A3CF883B09F056
:100D80007DCFE0917B0181E08E0F80937B01F0E0CD
:100D9000E65AFE4F80818093BB0090917B01809149
:100DA0007A0129C08091CD018093BB0085EC8093AE
:100DB000BC0064CF9091EF018091EE01981758F537
:100DC000E091EF0181E08E0F8093EF01F0E0E253BC
:100DD000FE4F8081E9CFE091EF0181E08E0F80939B
:100DE000EF018091BB00F0E0E253FE4F80839091D1
:100DF000EF018091EE019817C8F285E8D8CFE09115
:100E0000EF0181E08E0F8093EF018091BB00F0E055
:100E1000E253FE4F80838091F10181115CCF81E02C
:100E20008093CC0184EA8093BC001092F20126CF1B
:100E300085EC8093BC001092F20180919C0180327D
:100E400030F4E0919C01F0E0E458FE4F1082609194
:100E50009C0170E0E091A601F091A7018CE791E080
:100E6000099510929C010ACF1092F00134CFE7E16E
:100E7000F2E01382128288EE93E0A0E0B0E0848377
:100E80009583A683B78324E031E03183208325EC6A
:100E900030E03587248724EC30E03787268720EC44
:100EA00030E0318B208B21EC30E0338B228B22EC35
:100EB00030E0358B248B26EC30E0378B268B118E7F
:100EC000128E138E148EE4EBF2E01382128284836E
:100ED0009583A683B78386E191E091838083E0ECDC
:100EE000F2E01382128288E291E0918380838CE0A9
:100EF00084838FEF85838BE0868385E0878384E01E
:100F0000808783E0818782E0828713861486158636
:100F10001686178681E00C946A04CF93DF93CDB7D1
:100F2000DEB72B970FB6F894DEBF0FBECDBF789417
:100F300084B5826084BD84B5816084BD85B58260DE
:100F400085BD85B5816085BD80916E00816080938F
:100F50006E001092810080918100826080938100F8
:100F60008091810081608093810080918000816008
:100F7000809380008091B10084608093B100809163
:100F8000B00081608093B00080917A00846080938B
:100F90007A0080917A00826080937A0080917A0052
:100FA000816080937A0080917A00806880937A00D3
:100FB0001092C1000E9469020E94690288E6809333
:100FC00015021092160281E00E94B10082E00E9498
:100FD0006A0481E08093F3011092F40110921602EA
:100FE00060E084EB92E00E94550381E00E94B10032
:100FF00081E090E00E94880384EB92E00E940E035F
:1010000087FFBBC060E371E087E192E00E941205B8
:1010100064E471E087E192E00E9412054BE050E049
:1010200065E870E0CE0101960E94480ACE010A965A
:101030000E94C002082FE981E154E331D8F40E2E5A
:10104000000CFF0BEA5DF74F0C947F0A300A3A0858
:101050003A08440A3A0839083A083A083A08240A89
:101060003A083A08370A420A400A3A083A083A085F
:101070003E0A12E0CE0105960E94C002E82E48E02A
:1010800050E06CE770E0CE0101960E94480ACE0164
:1010900001960E94C002D82ECE0104960E94C00282
:1010A000C82ECE0107960E94C002B82E81E0809320
:1010B000F30188E6809315021092F4011092160253
:1010C00060E084EB92E00E945503BAE0FB2E8B2D8A
:1010D0006F2D0E94510A682F660F680F660F6B0D07
:1010E00084EB92E00E9455038C2D6F2D0E94510AD3
:1010F000682F660F680F660F6C0D84EB92E00E94FC
:1011000055038D2D6F2D0E94510A682F660F680FB1
:10111000660F6D0D84EB92E00E94550360E084EB56
:1011200092E00E9455038E2D6F2D0E94510A682F68
:10113000660F680F660F6E0D84EB92E00E945503F8
:10114000812F6F2D0E94510A682F660F680F660F5E
:10115000610F84EB92E00E945503802F6F2D0E9457
:10116000510A682F660F680F660F600F84EB92E0DC
:101170000E94550381E00E94B10033243394F8E6C5
:101180002F2EA0E0AA2EA0E0BA2E3092F3012092DA
:1011900015021092F4011092160260E084EB92E0C6
:1011A0000E94550381E00E94B10087E090E00E9418
:1011B000880384EB92E00E940E038F77282F30E0A3
:1011C00094E0359527959A95E1F7922F990F990F0D
:1011D000922E991A990C980E84EB92E00E940E03BD
:1011E0009C0144E0359527954A95E1F72F70332708
:1011F000922F990F990F822E891A880C880E84EBF2
:1012000092E00E940E039C0154E0359527955A9573
:10121000E1F72F703327922F990F990F722E791AB9
:10122000770C780E84EB92E00E940E0384EB92E040
:101230000E940E039C0164E0359527956A95E1F7BD
:101240002F703327922F990F990F122F191B110FFF
:10125000180F84EB92E00E940E039C0174E0359518
:1012600027957A95E1F72F703327922F990F990FD1
:10127000022F091B000F080F84EB92E00E940E035F
:101280009C01E4E035952795EA95E1F72F70332727
:10129000922F990F990FC22EC91ACC0C8C0DC82E03
:1012A000D12C20E3C21A28EFD20AF12CE12C2AE03B
:1012B000B701A60187E192E00E94210567E471E091
:1012C00087E192E00E947405602F87E192E00E941E
:1012D0006D0567E471E087E192E00E947405612F7B
:1012E00087E192E00E946D05672D87E192E00E9400
:1012F0006D0569E471E087E192E00E947405682D54
:1013000087E192E00E946D0569E471E087E192E077
:101310000E947405692D87E192E00E946D0564E4E6
:1013200071E087E192E00E941205E1E08091D30232
:101330008111E0E0E195F0E0E054FD4F84898068A0
:101340000E9464046BE471E080EC92E00E947405FA
:10135000672D80EC92E00E946D0569E471E080ECFD
:1013600092E00E947405682D80EC92E00E946D0569
:1013700069E471E080EC92E00E947405692D80ECD4
:1013800092E00E946D05E091D302E23008F07EC049
:10139000E150F0E0E054FD4F848980680E946404CD
:1013A00062E571E080EC92E00E9474052AE0B701EA
:1013B000A60180EC92E00E94210567E471E080ECD8
:1013C00092E00E947405602F80EC92E00E946D050F
:1013D00067E471E080EC92E00E947405612F80EC7C
:1013E00092E00E946D050E949B022B013C0188EE59
:1013F000C82E83E0D82EE12CF12C0E949B026419A8
:10140000750986099709683E734081059105A8F31F
:1014100081E0C81AD108E108F10828EE420E23E065
:10142000521E611C711CC114D104E104F10429F79E
:10143000A114B10409F4A9CE0E94DC01882309F4A7
:10144000A4CE0E940000A1CE8A8111E0813609F469
:1014500011CE8B8117E08E3609F00CCE16E00ACE45
:101460008B8118E0823709F005CE14E003CE8B8122
:1014700015E0823709F0FECD13E0FCCD19E0FACD7E
:101480001AE0F8CD1BE0F6CD1CE0F4CDE1E081CF11
:10149000FB01DC0102C005900D9241505040D8F78D
:1014A0000895991B79E004C0991F961708F0961BC0
:1014B000881F7A95C9F780950895A1E21A2EAA1B74
:1014C000BB1BFD010DC0AA1FBB1FEE1FFF1FA217F4
:1014D000B307E407F50720F0A21BB30BE40BF50BF1
:1014E000661F771F881F991F1A9469F7609570957A
:1014F000809590959B01AC01BD01CF010895EE0F41
:0E150000FF1F0590F491E02D0994F894FFCFA1
:10150E00000000006F01F0011001BC0141011F013C
:10151E00330100000000550328038503FE0221035A
:10152E000E03FF02000000000C05F001850384038A
:10153E0072746320696E204E4F542072756E6E6900
:10154E006E6721000D0A002F003A0054494D453AAE
:0A155E002000444154453A200000EB
:107E0000112484B714BE81FFF0D085E080938100F7
:107E100082E08093C00088E18093C10086E0809377
:107E2000C20080E18093C4008EE0C9D0259A86E02C
:107E300020E33CEF91E0309385002093840096BBD3
:107E4000B09BFECF1D9AA8958150A9F7CC24DD24C4
:107E500088248394B5E0AB2EA1E19A2EF3E0BF2EE7
:107E6000A2D0813461F49FD0082FAFD0023811F036
:107E7000013811F484E001C083E08DD089C08234E0
:107E800011F484E103C0853419F485E0A6D080C0E4
:107E9000853579F488D0E82EFF2485D0082F10E0AE
:107EA000102F00270E291F29000F111F8ED06801E7
:107EB0006FC0863521F484E090D080E0DECF843638
:107EC00009F040C070D06FD0082F6DD080E0C81688
:107ED00080E7D80618F4F601B7BEE895C0E0D1E017
:107EE00062D089930C17E1F7F0E0CF16F0E7DF06D8
:107EF00018F0F601B7BEE89568D007B600FCFDCFD4
:107F0000A601A0E0B1E02C9130E011968C91119780
:107F100090E0982F8827822B932B1296FA010C0160
:107F200087BEE89511244E5F5F4FF1E0A038BF0790
:107F300051F7F601A7BEE89507B600FCFDCF97BE46
:107F4000E89526C08437B1F42ED02DD0F82E2BD052
:107F50003CD0F601EF2C8F010F5F1F4F84911BD097
:107F6000EA94F801C1F70894C11CD11CFA94CF0C13
:107F7000D11C0EC0853739F428D08EE10CD085E9AC
:107F80000AD08FE07ACF813511F488E018D01DD067
:107F900080E101D065CF982F8091C00085FFFCCF94
:107FA0009093C60008958091C00087FFFCCF809118
:107FB000C00084FD01C0A8958091C6000895E0E648
:107FC000F0E098E1908380830895EDDF803219F02E
:107FD00088E0F5DFFFCF84E1DECF1F93182FE3DFCA
:107FE0001150E9F7F2DF1F91089580E0E8DFEE27F6
:047FF000FF270994CA
:027FFE00040479
:0400000300007E007B
:00000001FF
